:100000000C942A000C94CA000C94CA000C94CA00E8
:100010000C94CA000C94CA000C94CA000C94CA0038
:100020000C94CA000C94CA000C94CA000C94CA0028
:100030000C94CA000C94CA000C94CA000C94CA0018
:100040000C94CA000C94CA000C94CA000C94CA0008
:100050000C94CA0011241FBECFE5D4E0DEBFCDBF93
:0C0060000E9476000C94BF00F894FFCFC3
:10006C003C6666666666663C183818181818183CA4
:10007C007E06063E6060607E7E06063E0606067EB6
:10008C006666667E060606067E60607E0606067E50
:10009C003C60607C6666663C7E06060C1818181878
:1000AC003C66663C6666663C3C66663E0606063CFE
:1000BC003C66667E666666667C66667C6666667CA4
:1000CC003C6660606060663C786C666666666C7800
:1000DC007E60607C6060607E6060607C6060607E82
:1000EC008FEF8ABB87BBC0E0D0E0BE01660F771FE5
:1000FC00660F771F660F771FCB01A0E0BC018A2F1C
:10010C0064597F4F8F4F0E949D00CE0101968F70D6
:10011C009078992324F40197806F9F6F0196EC01DE
:0E012C0087EA91E60197F1F700C00000DECFF0
:10013A009B01482F80E090E0A1E0B0E0F9015491E2
:10014A0047FD50815BBBBD01082E02C0660F771FB9
:10015A000A94E2F7609568BBE9EFF0E03197F1F7AE
:10016A0000C0000001962F5F3F4F4F4F8830910526
:04017A0029F70895C4
:10017E00EC010E94CF000E94CE00CE010E94D00062
:06018E00CE010E94CC002E
:040194000C940000C7
:040198000E9434008D
:02019C000895C4
:02019E000895C2
:0201A0000895C0
:00000001FF
