:100000000C942A000C94CC000C94CC000C94CC00E2
:100010000C94CC000C94CC000C94CC000C94CC0030
:100020000C94CC000C94CC000C94CC000C94CC0020
:100030000C94CC000C94CC000C94CC000C94CC0010
:100040000C94CC000C94CC000C94CC000C94CC0000
:100050000C94CC0011241FBECFE5D4E0DEBFCDBF91
:0C0060000E9436000C94C100F894FFCF01
:10006C00CF93DF93CDB7DEB760970FB6F894DEBFB2
:10007C000FBECDBF80EC898389EF8A8384EA8B83A2
:10008C0080EB8C8389E98D8382E98E8382E88F8370
:10009C0088EF888780E8898780E98A878EE98B8753
:1000AC0088E88C8780EE8D8784EB8E878EE88F872F
:1000BC008FE8888B8FEF81BB84BB8E010F5E1F4F47
:1000CC006894EE24E3F86894FF24F2F872E061E09F
:1000DC009E012F5F3F4F4BC0908192BBE5BAA1EEC2
:1000EC00B4E01197F1F700C0000015BAD6019C914D
:1000FC0092BBF5BAA1EEB4E01197F1F700C0000085
:10010C0015BADA019C9192BB75BBA1EEB4E01197C4
:10011C00F1F700C0000015BAD9019C9192BB65BBE8
:10012C00A1EEB4E01197F1F700C0000015BA8150B0
:10013C0099F631960E171F0711F080E1CDCFBFEF66
:10014C00CB1ADB0A0C151D0519F0FE013196F5CF03
:10015C004F5F5F4F0417150721F0CE0101966C011C
:10016C00F4CF2F5F3F4F0217130709F4B1CFAE0145
:06017C004F5F5F4FF2CF60
:10018200EC010E94D1000E94D000CE010E94D20058
:06019200CE010E94CE0028
:040198000C940000C3
:04019C000E94340089
:0201A0000895C0
:0201A2000895BE
:0201A4000895BC
:00000001FF
