:100000000C9430000C9452010C9452010C94520147
:100010000C9452010C9452010C9452010C94520114
:100020000C9452010C9452010C9452010C94520104
:100030000C9452010C9452010C9452010C945201F4
:100040000C9452010C9452010C9452010C945201E4
:100050000C9452010060006E0002B2006E007080CD
:1000600011241FBECFE5D4E0DEBFCDBFE4E5F0E054
:1000700040E017C0B591A59135912591059107FDF7
:100080000CC095918591EF01F92FE82F05900D9205
:10009000A217B307D9F7FE0104C01D92A217B30738
:1000A000E1F7E036F40731F70E94C2000C944701F3
:0400B000F894FFCFF2
:1000B4003C6666667E6666667C66667C6666667CAC
:1000C4003C6660606060663C786C666666666C7808
:1000D4007E60607C6060607E6060607C6060607E8A
:1000E4003E6666606E66663E6666667E66666666E2
:1000F4003C1818181818183C1E33331818181818F8
:1001040066666C78786C66667E606060606060606D
:10011400C6C6C6D6D6FEEEC6C6C6E6F6DECEC6C68B
:100124003C6666666666663C6060607C6666667CA5
:100134003E6C6C666666663C66666C7C6666667C6F
:100144003C66603C0606663C181818181818187E99
:100154003C66666666666666183C666666666666DD
:10016400C6EEFED6D6C6C6C6C6C66C38386CC6C67B
:100174001818183C666666667E060C183060407E69
:10018400CF93DF93CDB7DEB72E970FB6F894DEBFCB
:100194000FBECDBF8FEF8ABB87BB8EE0E0E6F0E0F9
:1001A400DE01119601900D928A95E1F76E018FE0C0
:1001B400C80ED11CFE0131967F0132C0F701608167
:1001C4007181660F771F660F771F660F771FCB014C
:1001D400A0E0BC018A2F6C547F4F8F4F0E94150101
:1001E40087E99AE30197F1F700C0000080916E005F
:1001F40090916F0001968830910529F090936F00DB
:1002040080936E0004C010926F0010926E00015033
:100214001109A1F692E0E90EF11CEC14FD0451F26F
:060224000AE010E0CBCF60
:10022A00CF92DF92EF926B01E82E20E030E041E0BE
:10023A0050E0AEE6B0E0F6018491E7FC80818BBB2A
:10024A00CA01022E02C0880F991F0A94E2F70C9085
:10025A0002C0880F991F0A94E2F7809588BB89EF3C
:10026A0090E00197F1F700C000002F5F3F4F9FEF2A
:10027A00C91AD90AE90A28303105E9F6EF90DF9060
:04028A00CF90089574
:10028E00EC010E9457010E945601CE010E945801B6
:06029E00CE010E94540194
:0402A4000C940000B6
:0402A8000E94580058
:0202AC000895B3
:0202AE000895B1
:0202B0000895AF
:0E02B2000400030014000000110003000E0001
:00000001FF
