:100000000C942A000C94B8000C94B8000C94B8001E
:100010000C94B8000C94B8000C94B8000C94B80080
:100020000C94B8000C94B8000C94B8000C94B80070
:100030000C94B8000C94B8000C94B8000C94B80060
:100040000C94B8000C94B8000C94B8000C94B80050
:100050000C94B80011241FBECFE5D4E0DEBFCDBFA5
:0C0060000E9436000C94AD00F894FFCF15
:10006C00CF93DF93CDB7DEB72B970FB6F894DEBFE7
:10007C000FBECDBF8FE38A8386E08B838BE58C83A9
:10008C008FE48D8386E68E838DE68F8388E7888761
:10009C0087E089878FE78A8787E68B878FEF8ABB14
:1000AC0087BB8E01045F1F4F6894EE24E3F86894BD
:1000BC00FF24F2F872E061E09E012E5F3F4F43C0D7
:1000CC0090819BBBE8BAA5EDB6E01197F1F700C0A3
:1000DC000000D6019C919BBBF8BAA5EDB6E0119738
:1000EC00F1F700C00000DA019C919BBB78BBB6EA2B
:1000FC00BA95F1F700C0D9019C919BBB68BBB6EADD
:10010C00BA95F1F700C08150D9F631960E171F073A
:10011C0011F08AE0D5CF8FEFC81AD80AC016D106D5
:10012C0019F0FE013296F5CF4F5F5F4F4017510724
:10013C0021F0DE0112966D01F4CF2F5F3F4F201797
:0E014C00310709F4B9CFAE014E5F5F4FF2CF1D
:10015A00EC010E94BD000E94BC00CE010E94BE00BC
:06016A00CE010E94BA0064
:040170000C940000EB
:040174000E943400B1
:020178000895E8
:02017A000895E6
:02017C000895E4
:00000001FF
